:1000000016EF00F00000000000EF00F0000000001C
:0A0010000000000000000000F3D71C
:10001C000900F5CFE6FF0006FBE10106F9E112004D
:10002C00010E156E166A800E176E186A196A1A6A16
:10003C001B6A1C6A956A836AFF0E936E816A620E54
:10004C000C6E650E0D6E0D2EFED70C2EFCD700001F
:10005C00000081A00DD01B4A1C2A196A1A6A836AF7
:10006C00010E156E000E166E800E176E000E186EB9
:10007C00A30E0C6E550E0D6E0D2EFED70C2EFCD74E
:10008C00800E1C18006E800E005C02E1050E1B5CDD
:10009C0002E31B6A1C6A000E1C1802E1000E1B18FE
:1000AC0023E1020E0B6E450E0C6EA90E0D6E0D2E7D
:1000BC00FED70C2EFCD70B2EFAD7000000001550E3
:1000CC008326020E0B6E450E0C6EA90E0D6E0D2EB8
:1000DC00FED70C2EFCD70B2EFAD7000000001536DD
:1000EC0015901636194A1A2A000E1C1802E1010E38
:1000FC001B1825E1020E0B6E450E0C6EA90E0D6E33
:10010C000D2EFED70C2EFCD70B2EFAD700000000BC
:10011C0017508326020E0B6E450E0C6EA90E0D6E3B
:10012C000D2EFED70C2EFCD70B2EFAD7000000009C
:10013C0018321732189E18BC188E194A1A2A800EBB
:10014C001A18006E800E005C02E1080E195C0BE3BD
:10015C00196A1A6A836A010E156E000E166E800EED
:10016C00176E000E186E000E1C1802E1020E1B1802
:10017C0011E1FF0E836E020E0B6E450E0C6EA90E76
:10018C000D6E0D2EFED70C2EFCD70B2EFAD70000C1
:10019C000000836A000E1C1802E1030E1B1812E10A
:1001AC00550E836E020E0B6E450E0C6EA90E0D6E67
:1001BC000D2EFED70C2EFCD70B2EFAD7000000000C
:1001CC00AA0E836E000E1C1802E1040E1B180FE120
:1001DC00836A020E0B6E450E0C6EA90E0D6E0D2E63
:1001EC00FED70C2EFCD70B2EFAD70000000027D719
:0201FC00FFD72B
:020000040030CA
:0D000100220F0EFF0181FF0FC00FE00F4026
:00000001FF
